:020000040001F9
:10B00000B8A80020B1B30100B9B30100BBB301007F
:10B01000BDB30100BFB30100C1B3010000000000D7
:10B02000000000000000000000000000C3B30100A9
:10B03000C5B3010000000000C7B30100C9B301009F
:10B04000CBB30100CBB3010009C501004DC1010024
:10B050005DC10100CBB30100A9BB0100E5BF010048
:10B06000A5C40100B9C40100CDC40100CBB30100E7
:10B07000CBB30100CBB30100CBB30100CBB30100D4
:10B080001DC50100A9BE0100CBB30100CBB3010077
:10B090006DC10100CBB3010071C10100CBB3010050
:10B0A000CBB30100CBB30100E1C40100F5C4010042
:10B0B00079BE0100FDBD010000000000000000009D
:10B0C000CBB3010089BE010099BE0100CBB30100E2
:10B0D000CBB30100CBB30100CBB3010000000000F3
:10B0E0000000000000000000000000000000000060
:10B0F0000000000000000000000000000000000050
:10B10000000000000000000000000000000000003F
:10B11000000000000000000000000000000000002F
:10B12000000000000000000000000000000000001F
:10B13000000000000000000000000000000000000F
:10B1400000000000000000000000000000000000FF
:10B1500000000000000000000000000000000000EF
:10B1600000000000000000000000000000000000DF
:10B1700000000000000000000000000000000000CF
:10B1800000000000000000000000000000000000BF
:10B1900000000000000000000000000000000000AF
:10B1A000000000000000000000000000000000009F
:10B1B000000000000000000000000000000000008F
:10B1C000000000000000000000000000000000007F
:10B1D000000000000000000000000000000000006F
:10B1E000000000000000000000000000000000005F
:10B1F000000000000000000000000000000000004F
:10B20000DFF80CD000F042FC004800472921020082
:10B21000B8A80020401E00BF00BF00BF00BF00BF95
:10B2200000BF00BF00BF00BF00BF00BF00BF00BF26
:10B2300000BF00BF00BF00BF00BF00BF00BF00BF16
:10B2400000BF00BF00BF00BF00BF00BF00BF00BF06
:10B2500000BF00BF00BF00BF00BF00BF00BF00BFF6
:10B2600000BF00BF00BF00BF00BF00BF00BF00BFE6
:10B2700000BF00BF00BF00BF00BF00BF00BF00BFD6
:10B2800000BF00BF00BFC5D170470000401E00BF17
:10B2900000BF00BF00BF00BF00BF00BF00BF00BFB6
:10B2A00000BF00BF00BF00BF00BF00BF00BF00BFA6
:10B2B00000BF00BF00BF00BF00BF00BF00BF00BF96
:10B2C00000BF00BF00BF00BF00BF00BF00BF00BF86
:10B2D00000BF00BF00BF00BF00BF00BF00BF00BF76
:10B2E00000BF00BF00BF00BF00BF00BF00BF00BF66
:10B2F00000BF00BF00BF00BF00BF00BF00BFC5D17F
:10B3000070470000056885F308884068FF2464B230
:10B31000EFF30585002D01D1A646004725460646D8
:10B3200021273FBAF0B40024002500260027F0B4FE
:10B33000F92040B200470000401E00BF00BF00BF20
:10B3400000BF00BF00BF00BF00BF00BF00BF00BF05
:10B3500000BF00BF00BF00BF00BF00BF00BF00BFF5
:10B3600000BF00BF00BF00BF00BF00BF00BF00BFE5
:10B3700000BF00BF00BF00BF00BF00BF00BF00BFD5
:10B3800000BF00BF00BF00BF00BF00BF00BF00BFC5
:10B3900000BF00BF00BF00BF00BF00BF00BF00BFB5
:10B3A00000BF00BF00BF00BF00BFC5D17047000095
:10B3B0000648804706480047FEE7FEE7FEE7FEE74F
:10B3C000FEE7FEE7FEE7FEE7FEE7FEE795C10100C8
:10B3D00001B201002DE9F05F0546002092469B4630
:10B3E00088460646814640241BE02846414647469B
:10B3F000224600F0B4FA53465A46C01A914110D37F
:10B4000011461846224600F09BFA2D1A67EB0108F8
:10B410004F4622460120002100F092FA17EB000966
:10B420004E41201EA4F10104DFDC484631462A4685
:10B430004346BDE8F09F2DE9F0410024061B254658
:10B4400071F1000605DA01240027D0EB070067EB55
:10B450000101161E73F1000605DA0027D2EB070280
:10B46000012567EB0303FFF7B5FF86460E46174637
:10B470009C46AC4204D00025D0EB050E65EB0106DE
:10B4800024B10020D2EB000760EB030C704631467C
:10B490003A466346BDE8F08110B5431A934209D29B
:10B4A0008318881803E010F8011D03F8011D521ECF
:10B4B000F9D210BD40EA01039B0703D009E008C997
:10B4C000121F08C0042AFAD203E011F8013B00F869
:10B4D000013B521EF9D210BDD2B201E000F8012B9F
:10B4E000491EFBD270470022F6E710B513460A4604
:10B4F00004461946FFF7F0FF204610BD421C10F825
:10B50000011B0029FBD1801A704730B5044600208A
:10B51000034600E05B1C934203D2E05CCD5C401B21
:10B52000F8D030BD2DE9FE4F804681EA0300C00F00
:10B530000C46009021F0004123F00045B8EB0200DA
:10B54000A94105D24046214690461C460B4602467C
:10B5500023F00040104347D0270DC7F30A00C3F380
:10B560000A510290401A019040286BDAC3F313008D
:10B5700040F4801B0098924620B10023D2EB030ACE
:10B5800063EB0B0B01985946C0F14002504600F0A6
:10B59000D7F906460D4650465946019A00F0EFF994
:10B5A00010EB08006141002487EA115284EAE77336
:10B5B0001A4340D0009A62B3019A012A4FEA075217
:10B5C00015DC001B61EB02014FF0004202EA07525A
:10B5D000CDE90042001C41F5801132462B4600F0B7
:10B5E000EFF903B0BDE8F08F40462146F9E7001BB4
:10B5F00061EB0201001C41F5801300185B4120182B
:10B60000A2F5001747EB030140EAD570B6196D416A
:10B6100011E06D084FEA360645EAC0754FEA075259
:10B62000001B61EB0201001C41F5801149084FEA43
:10B6300030000019514132462B4603B0BDE8F04FAF
:10B6400000F0AFB90098012240000023D0EB0202C5
:10B6500063EBE073009821464FEAE074B8EB00001A
:10B6600061EB0401E9E783F000435BE781F000410F
:10B6700058E72DE9FE4F81EA030404F0004421F06D
:10B68000004100944FF0000B23F0004350EA010406
:10B690005ED052EA03045BD0C3F30A54C1F30A55E7
:10B6A0002C44A4F2F3340194A0FB0254C1F313011F
:10B6B00041F48011C3F3130343F4801301FB0244EC
:10B6C00000FB034E840A970A44EA815447EA8357F1
:10B6D000A4FB076802958D0A05FB07854FEA932CAA
:10B6E00004FB0C542705029D4FEA065847EA16371B
:10B6F000B5EB08056EEB070C870E920E47EA811733
:10B7000042EA8312A7FB0201B6EB0B0164EB0004D3
:10B710002B0D43EA0C335E1844EB1C50DA465146BD
:10B72000E7FB0201C5F313044FEA0B3343EA14535A
:10B730004FEA0432019C43EA0603A4F10C0402948C
:10B74000009CCDE900B400F03BF903B0BDE8F08FF8
:10B7500000200146F9E72DE9F04D81EA030404F0E9
:10B76000004B21F0004514464FF0000A23F0004141
:10B7700050EA050220D054EA01021DD0C5F30A5751
:10B780000246C5F31303C1F31300C1F30A5640F494
:10B79000801543F48013A7EB0608101BD64608F269
:10B7A000FD3873EB050002D308F1010801E092189F
:10B7B0005B41B8F1000F03DA00200146BDE8F08DCF
:10B7C00000204FF48011064684460EE0171B73EBF1
:10B7D000050705D3121B63EB050306434CEA010C76
:10B7E00049084FEA300092185B4150EA0107EDD159
:10B7F00052EA030012D082EA040083EA05010843FA
:10B8000005D0101BAB4106D20122002306E0002226
:10B810004FF0004302E06FF0010253101AEB0600F4
:10B820004CEB085110EB0A0041EB0B01BDE8F04D69
:10B8300000F0B7B80EB5C10F80EAE0700844CA073F
:10B84000002140F233438DE80E000A460B4600F01B
:10B85000B7F803B000BD0EB540F2334102910021AC
:10B86000CDE900110A460B4600F0AAF803B000BD6E
:10B8700070B5C1F30A5201F000450024C1F3130171
:10B8800040F2FF3341F480119A4201DA002070BD8A
:10B8900040F233439A42A2F2334203DC524200F0B8
:10B8A0005EF800E090402C43F1D0404270BDC1F3FF
:10B8B0000A5210B5C1F3130140F2FF3341F4801175
:10B8C0009A4201DA002010BD40F233439A42A2F2BC
:10B8D000334203DC524200F042F810BD904010BDEC
:10B8E00030B5041E71F1000404DB4FF00044404207
:10B8F00064EB0101141E73F1000405DB1C464FF0DC
:10B900000043524263EB04038B4208BF824230BDC6
:10B9100030B5041E71F1000404DB4FF000444042D6
:10B9200064EB0101141E73F1000405DB1C464FF0AB
:10B930000043524263EB0403994208BF904230BD7A
:10B94000202A04DB203A00FA02F1002070479140DF
:10B95000C2F1200320FA03F3194390407047202AD4
:10B9600004DB203A21FA02F00021704721FA02F3A9
:10B97000D040C2F120029140084319467047202A66
:10B9800006DBCB17203A41FA02F043EAE07306E007
:10B9900041FA02F3D040C2F1200291400843194617
:10B9A000704710B5141E73F1000408DA401C41F111
:10B9B000000192185B411A4301D120F0010010BD33
:10B9C0002DE9F04D92469B4611B1B1FA81F202E0A9
:10B9D000B0FA80F220329046FFF7B2FF04460F46DD
:10B9E00040EA0A0041EA0B0153465A46084313D085
:10B9F000114653EA010019D0C8F140025046FFF742
:10BA0000AEFF05460E46504659464246FFF798FFA0
:10BA1000084305D0012004E020463946BDE8F08DFA
:10BA20000020054346EAE0762C4337430A98630535
:10BA3000E40AA0EB08000022FD0A44EA47540A3059
:10BA400002D500200146E9E7010510196941DDE949
:10BA5000084500196941BDE8F04DA2E770B521F035
:10BA6000004303430CD0C1F30A550024D5EB040571
:10BA700064EB0403D617AD1AB34102DB0020014684
:10BA800070BD201841EB025170BD0000064C074DFF
:10BA900006E0E06840F0010394E80700984710349E
:10BAA000AC42F6D3FFF7B0FB3876020058760200BE
:10BAB0002DE9F04D00231A461B1A8A4103DB0020B2
:10BAC0000146BDE8F08DC1F30A52C1F3130141F400
:10BAD00080154FF0000BD10702D100186D41521EA6
:10BAE0000027044640F2FF11384601EB620A3E4649
:10BAF0008046024600204FF48011FFF730FFC21944
:10BB00007141BB1846EB0100B4EB030C75EB000C64
:10BB100004D3E41A65EB000517460E46241908F114
:10BB200001006D4180463428E3DDF91946EB06003B
:10BB3000091BA84103D24FF0FF32134601E0002257
:10BB400013461BEB070046EB0A51BDE8F04DFFF72B
:10BB500028BF70B58C1810F8015B15F0070301D1F0
:10BB600010F8013B2A1106D110F8012B03E010F860
:10BB7000016B01F8016B5B1EF9D12B0705D4002383
:10BB8000521E0DD401F8013BFAE710F8013BCB1A25
:10BB9000921C03E013F8015B01F8015B521EF9D51A
:10BBA000A142D8D3002070BD2DE9F0470025DFF871
:10BBB000F090A8464FF4807601242F46304608F0D6
:10BBC0006DFF38B1D9F80403204203D0304608F0A5
:10BBD0005BFF2543361D64007F1CB6B2082FEDD3F2
:10BBE0004FF4BE74204608F059FF38B1204608F0E3
:10BBF0004BFF2C4845F00045D0F800802A4E15F048
:10BC0000FF0F14D0012700242F420CD009EB840130
:10BC1000D1F81005D1F81015C0F3042056F82420EF
:10BC2000C1F3014190477F00641C082CECD3002D28
:10BC300032DA0024B14609EB04004E4690F9501068
:10BC4000491C26D090F8507027F0C005284604F013
:10BC50000FF956F82060E6B1BF090120A840A900FD
:10BC600001F1A041D1F8001710EA080FC1F301411A
:10BC700002D0022902D00CE003290AD1032F05D1FA
:10BC800002290BD00221284608F0E8FE3946284652
:10BC9000B047641C042CCED3BDE8F0870321F2E743
:10BCA00000600040100500509064002010B5064A66
:10BCB000064CD2E90A1201EA0203034023609143D1
:10BCC0000140201D016010BD4029002008050050E2
:10BCD00010B5064A064CD2E90A1201EA02030340F3
:10BCE000236091430140201F016010BD40290020C6
:10BCF0000C05005005490968054AD26A51400142C5
:10BD000001D001207047002070470000040500505A
:10BD1000402900202DE9F843994616460F468046F3
:10BD2000089D0AF047FF681C06F040FA044600F838
:10BD3000016B2A464946FFF7AFFB0D4E002070709D
:10BD40006D1C0090EBB222463946404608F09CFD3F
:10BD500008B102F045F970780028FCD0204605F0C3
:10BD6000F3F970680078002800D00120BDE8F8835E
:10BD70001428002000F01F0201219140400980009A
:10BD800000F1E020C0F88012704700F01F0201218E
:10BD900091404009800000F1E020C0F80011704798
:10BDA00000F01F02012191404009800000F1E020D5
:10BDB000C0F8001270474907090E002806DA00F0A3
:10BDC0000F0000F1E02080F8141D704700F1E02022
:10BDD00080F8001470470000BFF34F8F05480168DA
:10BDE000054A01F4E06111430160BFF34F8F00BFCA
:10BDF000FDE700000CED00E00400FA0570B54FF41B
:10BE0000847008F07BFE194E194C002558B1194872
:10BE100005603168E0688142218900D1206962684B
:10BE2000BDE8704010474FF4807008F067FE78B1AD
:10BE30001048083805600120607032680B49E068DE
:10BE4000091D824200D12069228930600A6070BDDC
:10BE50004FF4827008F052FE0028F8D00548001F09
:10BE60000560024860380560657070BD60D50140AE
:10BE7000E864002008D101400149024805F058BF9C
:10BE8000FC64002000C001400149024805F050BF99
:10BE900004650020001002400149024805F048BF37
:10BEA0000C6500200020024007480021C0F8401126
:10BEB000C0F84411C0F84811C0F84C11C0F8001186
:10BEC000C0F804110AF02ABD001001402DE9FC4120
:10BED0001C4615460E4607460AF06CFE02200090EE
:10BEE00001AB2A463146384600F04AF8BDF8041046
:10BEF00049BAADF800102180BDE8FC812DE9FC4174
:10BF00001C4615460E4607460AF054FE01AB2A466B
:10BF100031463846FFF7DAFFBDF804100A0A42EA54
:10BF20000121ADF800102180BDE8FC81F8B51C4668
:10BF300015460E4607460AF03DFE0020ADF800000B
:10BF40006B462A4631463846FFF7D8FFBDF8001049
:10BF50002180F8BD2DE9FC411C4615460E460746DA
:10BF60000AF028FE0120009001AB2A4631463846EF
:10BF700000F006F89DF804102170BDE8FC81000077
:10BF80002DE9FC471E461446884681460A9F0AF062
:10BF900011FE8DF80440124C00256570012301AAA2
:10BFA00041464846009508F06FFC08B102F018F8C9
:10BFB00060780028FCD065703B46324641464846D2
:10BFC00008F050FC08B102F00BF860780028FCD0B3
:10BFD00060680078002800D00120BDE8FC870000E0
:10BFE000142800202DE9FE434FF4827008F0DCFD98
:10BFF0000025DFF84C91534C012700286ED05248A1
:10C000004E46056094F82A00012818D06089401C2B
:10C01000608160892189814223D18DF80050606858
:10C0200001902089ADF8080084F82750E06810B12D
:10C03000A18A08F017F92168684688474EE08DF814
:10C040000050606801902089ADF80800E06828B1D0
:10C050006060A08A2081E5603760ECE784F82750B3
:10C06000E9E7002294F82900114608F093FD618960
:10C07000606800EB4100012108F054FD94F82900AC
:10C0800011E000BF04EB4001897D61B1C1B204EB56
:10C090004101CA7D897D08F07DFD37602848001D7B
:10C0A0000760BDE8FE83401C84F82900C0B2082860
:10C0B000E8D3002004EB4001897D11B184F8290008
:10C0C00003E0401CC0B20828F4D394F8290004EB24
:10C0D0004001CA7D897D08F05DFD37604FF48A70AC
:10C0E00008F062FD28B118481030056084F8275028
:10C0F000D7E7A04626691FE0B6FA86F04FF0004168
:10C10000C1408E434FF48C7101EB8004204608F04F
:10C110004BFD88B144F80950A4F58C74E0088DF803
:10C12000040044F38000401C8DF800708DF8050079
:10C13000D8F8001068468847002EDDD1B1E700002E
:10C14000007000401465002004710040014902485D
:10C1500005F051BE7C6500200030004002494FF0E0
:10C16000402005F048BE0000A46500200AF066BB30
:10C17000074810B5406830B18047002807D0BDE8B7
:10C18000104001F02DBFBDE8104005F099BD10BD75
:10C190003C2B0020F0B5B2480023021D0178101D91
:10C1A00001254FF0805406290BD11678360708D1A7
:10C1B0000678C6F30316032E06D0042E04D0052EEF
:10C1C00002D0062907D00EE0B4F82463A54FC6F3C9
:10C1D00004263E6002E01678360704D10678C6F3DE
:10C1E0000316032E02D0062904D00FE09F4F9E4E67
:10C1F0007E670EE01678360708D10678C6F3031678
:10C20000032E06D0042E04D0052E02D0062907D016
:10C210000EE0D4F84462964FC6F342363E6002E028
:10C220001678360704D10678C6F30316032E02D01B
:10C23000062906D011E08F4E376827F080773760E7
:10C240000EE01678360708D10678C6F30316032EDB
:10C2500006D0042E04D0052E02D006290AD011E003
:10C260004FF08046C6F80C31C6F81031804E361FAC
:10C27000336002E01678360704D10678C6F3031659
:10C28000032E02D0062905D00CE0794F032664372F
:10C290003E600AE01678360704D10678C6F3031626
:10C2A000032E02D006290DD014E0734F05263E6000
:10C2B000714E78363560704E083633603F263F1D2C
:10C2C0003E6002E01678360704D10678C6F30316FE
:10C2D000052E02D0062957D062E0684E3668684FB6
:10C2E0003E60664E361D36683F1D3E60634E083622
:10C2F00036683F1D3E60614E0C3636683F1D3E601D
:10C300005E4E103636683F1D3E605C4E1436366811
:10C310003F1D3E60594E18363668594F20373E60F3
:10C32000564E1C3636683F1D3E60544E20363668E9
:10C330003F1D3E60514E243636683F1D3E604F4ED5
:10C34000283636683F1D3E604C4E2C3636683F1D01
:10C350003E604A4E30363668494F40373E60474E61
:10C36000343636683F1D3E60444E383636683F1DD1
:10C370003E60424E3C3636683F1D3E603F4E403682
:10C3800036683F1D3E6002E01678360708D1067811
:10C39000C6F30316032E06D0042E04D0052E02D0B9
:10C3A000062907D019E0D4F85812364A01F04F0197
:10C3B000116002E0117809070FD10078C0F3031073
:10C3C000032803D0042801D0052806D12E4801688F
:10C3D000C90702D06FF001010160D4F830010628CE
:10C3E00008D1D4F83401062804D12848016841F462
:10C3F000806101601F487438016841F47001016078
:10C40000BFF34F8FBFF36F8F4FF01021D1F80C02A5
:10C41000C00720D01E4A15601E480468002CFCD0BE
:10C42000D1F80C4224F00104C1F80C420168002943
:10C43000FCD0136001680029FCD0BFF34F8F0D487A
:10C44000F0380168144A01F4E06111430160BFF360
:10C450004F8F00BFFDE7124910480860F0BD000093
:10C46000E00F00F0403501400DF0ADBA00C00740CC
:10C470003C050040FCED00E01056004004040010B4
:10C4800020C50040E40E0040000400403C1700407E
:10C4900004E5014000E401400400FA050090D003E7
:10C4A000542A002004220249024805F085BC0000FD
:10C4B000406500200080004004220249024805F047
:10C4C0007BBC00004C650020009000400422024923
:10C4D000024805F071BC00005865002000A0004033
:10C4E00006220249024805F067BC0000646500208E
:10C4F00000A0014006220249024805F05DBC000090
:10C500007065002000B001400348007F08B10AF0C8
:10C510009DBD0AF017BD0000CC6500200648D0F88C
:10C52000040310F0010F4FF0000004D0034908602D
:10C530000348406800477047000001400001014087
:10C54000482A00202DE9FC411C4617460D460646A8
:10C550000AF030FB8DF804708DF805400B4C00207C
:10C5600060700090022301AA2946304608F08CF939
:10C5700008B101F035FD60780028FCD060680078D3
:10C58000002800D00120BDE8FC8100001428002014
:10C590000FB4084B10B504A902AA039801F0B6F92C
:10C5A000044602A9002001F05DFB204610BC5DF8A6
:10C5B00014FB000065DC010003B401984100009801
:10C5C00050EAC12018BF04204A0D18BF40F00100F6
:10C5D00040F2FF72B2EB515F08BF40F00200012849
:10C5E00008BF052002B0704770B5D94B00242DED6F
:10C5F000020B2DED108BDDE91010984205DA20F0CA
:10C6000000429A4201D809D141B19DED100BBDEC19
:10C61000108B02B0BDE8704001F01EB9B0F5801F6C
:10C6200026DA11430BD0002813DA012001F068F953
:10C63000BDEC108B02B0BDE8704001F021B90220C2
:10C6400001F05EF901F0F0F851EC100B81F00041BF
:10C650009EE06FF035049FEDC00B53EC102B9DED69
:10C66000100B51EC100BFFF704F8CDE91001084650
:10C6700004EB2051C0F31304B948A1F2FF31204468
:10C6800000F4801080F07F6282F04052224301EB80
:10C6900020559FEDB50B119253EC102B9DED100B17
:10C6A00051EC100BFEF7DFFF41EC180BA01CC0F3A0
:10C6B00013009FEDAFDB9FEDB0EBB14E7E4403283E
:10C6C0006CD296ED000B51EC180B53EC102BFFF7CE
:10C6D00007F91DD1002D01BF96ED000BBDEC108BAD
:10C6E00002B070BD2846FFF7A5F841EC180B53ECDB
:10C6F0001D2BFEF7BEFF41EC190B53EC1E2B51EC2A
:10C70000180BFEF7B6FF53EC192BFEF70BFF3FE0BB
:10C710009FED9D0B51EC180B53EC102BFEF7A9FF6E
:10C720009FED9B1B53EC112BFEF7A0FF41EC190B67
:10C7300053EC182B51EC180BFEF79BFF53EC192B05
:10C74000FEF797FF41EC190B002D04BF53EC192B9A
:10C7500051EC180B1AD02846FFF76CF841EC1A0B75
:10C7600053EC1D2BFEF785FF53EC192BFEF77EFFD4
:10C7700053EC182BFEF777FF41EC180B53EC1E2BF4
:10C7800051EC1A0BFEF775FF53EC182BFEF76BFFFD
:10C79000BDEC108B02B041EC100B70BD9FED7E0B19
:10C7A00051EC180B53EC102BFEF7BCFE41EC100BB8
:10C7B00051EC180B53EC102BFEF7CDFF41EC190B8D
:10C7C0002846FFF737F841EC1B0B53EC192B51ECC3
:10C7D000190BFEF74EFF41EC1A0B714853EC1A2B64
:10C7E000261851EC1A0BFEF744FF41EC1F0B6D4865
:10C7F000C4F1510404F5D724B0EE4F0AF0EE6F0AED
:10C800000321784400F094FF53EC1F2B51EC100BE4
:10C81000FEF72FFF41EC1C0B6348B0EE4F0AF0EE21
:10C820006F0A0421784400F083FF53EC1A2B51EC7B
:10C83000100BFEF71EFF344353EC1C2BFEF772FE69
:10C8400041EC1C0B002C4CDD9FED510B51EC180BF7
:10C8500053EC102BFEF70DFF53EC182BFEF709FFDE
:10C8600041EC1A0B55B353EC1D2B51EC1B0BFEF78F
:10C8700000FF41EC1D0B53EC1C2B51EC1A0BFEF787
:10C8800051FE53EC192BFEF7F4FE53EC1D2BFEF773
:10C8900049FE53EC1A2BFEF7E9FE53EC182BFEF77A
:10C8A000E2FE41EC180B53EC1E2B51EC1B0BFEF778
:10C8B000E0FE53EC182BFEF7D6FE69E753EC1C2B79
:10C8C00051EC1A0BFEF72EFE53EC192BFEF7D1FE9E
:10C8D00053EC1A2BFEF7CAFE53EC182BFEF7C6FEDC
:10C8E00056E735B353EC1D2B51EC1B0BFEF7C1FE85
:10C8F00041EC1A0B53EC1C2B51EC180BFEF7B3FE5A
:10C9000053EC192BFEF7B5FE53EC1A2BFEF7ABFEDA
:10C9100053EC182BFEF7A7FE41EC180B53EC1E2B23
:10C9200051EC1B0BFEF7A5FE53EC182BFEF79BFEFC
:10C930002EE753EC1C2B51EC180BFEF794FE53EC36
:10C94000192BFEF796FE53EC182BFEF78FFE1FE710
:10C950000000F07F000000000000000000005043D5
:10C96000645F090000000000000000000000F03FCC
:10C97000763C7935EF39EA3D0000E0FE422EE63F95
:10C9800070AF000000000000555555555555D53F76
:10C99000000000000000E03F000000000000004038
:10C9A00086EBF9FFF2AD0000E8AD000000000000EA
:10C9B00070B5414A00252DED020B2DED048BDDE90C
:10C9C0000404944205DA24F00041914201D809D1CF
:10C9D00040B19DED040BBDEC048B02B0BDE870408E
:10C9E00000F03ABFB4F5801F26DA08430BD0002CC4
:10C9F00013DA012000F084FFBDEC048B02B0BDE827
:10CA0000704000F03DBF022000F07AFF00F00CFF04
:10CA100051EC100B81F0004146E09FED290B6FF0C7
:10CA2000350553EC102B9DED040B51EC100BFEF76C
:10CA300020FECDE904010C4605EB2450A0F2FF30A6
:10CA4000C10F40F2FF32521A62F31F540844FEF73E
:10CA5000F1FE05949DED040B41EC180B51EC100B0D
:10CA600005F05AFB9FED181B53EC112BFEF701FE4E
:10CA70009FED170B41EC190B53EC102B51EC180BDD
:10CA8000FEF7F7FD53EC192BFEF74CFD9FED120B53
:10CA900041EC190B53EC102B51EC180BFEF7E9FD90
:10CAA00053EC192BFEF73EFDBDEC048B02B041ECBC
:10CAB000100B70BD000000000000F07F00000000BF
:10CAC00000000000000050430EE526157BCBDB3F45
:10CAD000362BF111F3FE593D00609F501344D33FB4
:10CAE0002DE9F04D2DED040B2DED0E8B96B0DDE90B
:10CAF0002550279CDDF890A025F0004624F0004842
:10CB0000BAF1000F14BF0121002101EB4502FC49DD
:10CB100053184A1093422AD3002814BF012300233C
:10CB200003EB44030B44F7498B4220D358EA00013E
:10CB30009FEDF59B76D0DFF8D8B35D4503D1BAF110
:10CB4000000F05D188E0BAF1000F08BF002100D026
:10CB5000012101EB450111F5001F08D8002814BF81
:10CB60000121002101EB440111F5001F0BD99DEDBE
:10CB7000261B9DED240B16B0BDEC0E8B04B0BDE85A
:10CB8000F04D00F073BE0027002DBCBFE149884581
:10CB900021DAE1498845A8BF02271CDAC3451ADC1F
:10CBA000DE4901EB2851142908DDC1F1340220FAD5
:10CBB00002F101FA02F282420DD108E058B9C1F146
:10CBC000140228FA02F101FA02F2424503D101F0FF
:10CBD0000101C1F1020756EA0A0124D1002C22DA30
:10CBE000002D18BF022F01D0012F0AD0022000F023
:10CBF00087FE16B0BDEC0E8B04B0BDE8F04D00F022
:10CC000013BE022000F07CFE00F00EFE51EC100B73
:10CC100081F0004141EC100B16B0BDEC0E8B04B05E
:10CC2000BDE8F08D18E09FEDBEAB9FEDBF8B0028F7
:10CC300071D1B848804522D105F1804010F58010AF
:10CC400008BFBAF1000F07D0B3450ADC002CA8BF1B
:10CC50009DED260BE0DA0DE0B0EE490AF0EE690A30
:10CC6000DAE7002C06DA9DED260B51EC100B81F073
:10CC700000416FE0AE48784490ED000BCCE7D8451A
:10CC80004DD1002C48DA2EB186423AD1BAF1000FCC
:10CC900042D126E0BAF1000F13D0022000F030FE9E
:10CCA00000F0FEFD8DED020B9DED240B8DED000BD4
:10CCB00010EE900A039961F31E0003909DED020BA4
:10CCC000AAE78DED02AB9DED240B1AEE901A10EE43
:10CCD000900A8DED000B61F31E0003909DED020B99
:10CCE0009AE78DED028B9DED240B18EE901A10EE55
:10CCF000900A8DED000B61F31E0003909DED020B79
:10CD00008AE709DA9DED240B51EC190B53EC102B3B
:10CD1000FEF721FD1EE020E09DED240B7CE786421E
:10CD20001BDAB4F1804F0DD0A4F10050B0F1FF50E8
:10CD300013D1002D11DB9DED240B51EC100B09F0EC
:10CD400067FB07E09DED240B53EC102B51EC100B0F
:10CD500000F0C2BC41EC100B5EE79DED240B51ECE2
:10CD6000100B04F03BF9BAF1000FCDE90E0142D1EE
:10CD70009FED710B46B3A6F1E040B0F17F600CD09F
:10CD80005E4538D1002D00DAA7B3022F0CBF012079
:10CD90004FF0FF30FEF74EFDDCE7002D01DD002CEB
:10CDA0000DDA002D01DD002C1FDB002D16DA002C22
:10CDB00014DB012F08BF9FED620B3FF42DAFB0EEE7
:10CDC0004A0AF0EE6A0A27E7022F18BF002D0CD09E
:10CDD000012F0AD1002DFFF61FAF06E0002DB8BFCE
:10CDE000002C08DA012F3FF417AFB0EE480AF0EE3E
:10CDF000680A11E71BE0012000EBE57050EA07012B
:10CE000015D0791EB0EE498AF0EE698A084308BF52
:10CE10009FED4D8B4E480025804570DD4D494E48B5
:10CE2000884514DDB0420DDB002C19DB2FE001201A
:10CE300000F066FD16B0BDEC0E8B04B0BDE8F04D01
:10CE400000F01EBDB34502DC002C09DC1FE0864269
:10CE500002DA002C1BDA03E05E452BDD002C16DD28
:10CE6000022000F04DFD00F01BFD8DED020B53EC98
:10CE70001A2B51EC180BFEF7FCFBCDE900010399CE
:10CE8000019861F31E0003909DED020BC4E60220A1
:10CE900000F036FD00F014FD10EE901A18EE900A26
:10CEA0008DED020B8DED008B61F31E0003909DED67
:10CEB000020BB1E69DED0E0B53EC192B51EC100B50
:10CEC000FEF7D1FB9FED260BCDE9080153EC102BAB
:10CED0009DED080B51EC100BFEF7CBFB9FED221BD9
:10CEE00053EC112BFEF7C2FB9DED081B53EC112BED
:10CEF000FEF7BFFB9FED1E1B53EC112B3CE08CE0BB
:10CF0000FFFF1F00FFFF0F00000000000000F03FC8
:10CF10000000F03F0000F07F0000404301FCFFFFF5
:10CF2000000000000000F07F000000000000000092
:10CF3000B6A9000000000000000000000000008012
:10CF4000000000000000F0FF000000000000F0BF43
:10CF50000000E0410000F043FFFFEF3F0000000051
:10CF6000000000000000D03F555555555555D53FA0
:10CF7000000000000000E03FFEF778FB9DED080B8D
:10CF800041EC1A0B53EC102B51EC100BFEF771FB1C
:10CF900053EC1A2BFEF76DFB41EC1A0B9FEDFE0BC9
:10CFA00053EC102B9DED080B51EC100BFEF761FBC1
:10CFB00041EC1B0B9FEDFA0B51EC1A0B53EC102BB1
:10CFC000FEF757FB41EC1A0B9FEDF70B53EC102BC0
:10CFD0009DED080B51EC100BFEF74BFB53EC1A2B9D
:10CFE000FEF741FB41EC1A0B51EC1B0B53EC1A2BD7
:10CFF000FEF798FA0690CDE906519DED060B53EC2D
:10D000001B2B51EC100BFEF72EFB53EC1A2BFEF7EB
:10D010002DFB41EC100B00F0A1B90020B6F5801FEC
:10D020000EDA9FEDE30B53EC102B9DED0E0B51EC44
:10D03000100BFEF71EFBCDE90E016FF034000E461B
:10D0400000EB2650A0F2FF37C6F31300DA4940F098
:10D050007F6646F040568842D8BF002408DDD74995
:10D060008142C8BF012403DC0024A6F580167F1C82
:10D07000D348784400EBC4000F9690ED00CB9DEDB3
:10D080000E0B53EC1C2B51EC100BFEF7ECFA9DED44
:10D090000E0B41EC1B0B53EC1C2B51EC100BFEF751
:10D0A00041FA41EC100B51EC190B53EC102BFEF72D
:10D0B00052FB41EC1D0B51EC1B0B53EC1D2BFEF7EF
:10D0C000D8FA41EC1A0BBF488DED10AB784410959F
:10D0D00090ED000B4FF0005040EA660000EB8440FA
:10D0E0008DED080B00F5002009909DED080B53EC29
:10D0F0001C2B51EC100BFEF7B6FA9DED0E1B53ECFA
:10D10000112BFEF7B3FA41EC100B53EC102B9DEDF5
:10D11000100B51EC100BFEF7ACFA9DED080B41EC37
:10D120001C0B53EC102B9DED100B51EC100BFEF76C
:10D13000A0FA53EC1B2BFEF799FA53EC1C2BFEF7CD
:10D1400092FA53EC1D2BFEF794FA41EC1C0B53ECB6
:10D150001A2B51EC1A0BFEF78CFA41EC1B0B9A4878
:10D160000621B0EE4B0AF0EE6B0A784400F0E0FACC
:10D17000B0EE401AF0EE601AB0EE41DAF0EE61DA8D
:10D1800053EC1B2B51EC1B0BFEF773FA53EC1D2BCE
:10D19000FEF76FFA9DED100B41EC1B0B53EC1A2BB5
:10D1A00051EC100BFEF7BEF953EC1C2BFEF761FAA5
:10D1B00053EC1B2BFEF7B6F99DED100B41EC1B0B4E
:10D1C00053EC102B51EC100BFEF753FA41EC1D0BF6
:10D1D0009FED7FEB53EC1E2BFEF7A4F953EC1B2BBA
:10D1E000FEF7A0F90890CDE908519DED080B53EC2E
:10D1F0001E2B51EC100BFEF736FA53EC1D2BFEF7ED
:10D2000032FA53EC1B2BFEF731FA9DED080B41EC83
:10D210001D0B53EC102B9DED100B51EC100BFEF77A
:10D2200028FA41EC1B0B53EC1A2B51EC1D0BFEF7AB
:10D2300020FA9DED080B41EC1A0B53EC102B51EC2E
:10D240001C0BFEF716FA53EC1A2BFEF76BF941ECA8
:10D250001A0B51EC1B0B53EC1A2BFEF763F90C90D5
:10D26000CDE90C519DED0C0B53EC1B2B51EC100B2D
:10D27000FEF7F9F953EC1A2BFEF7F8F941EC1B0B0A
:10D280009FED550B53EC102B9DED0C0B51EC100B3F
:10D29000FEF7EFF941EC1A0B9FED510B51EC1B0B14
:10D2A00053EC102BFEF7E5F941EC1B0B9FED4E0BF9
:10D2B00053EC102B9DED0C0B51EC100BFEF7D9F934
:10D2C00053EC1B2BFEF72EF941EC100B4848784429
:10D2D00000EBC40090ED001B51EC100B53EC112B34
:10D2E000FEF720F941EC1B0B3846FEF7A3FACDE917
:10D2F000080153EC1B2B51EC1A0BFEF713F941EC10
:10D30000100B3C48784400EBC40090ED00CB51EC8E
:10D31000100B53EC1C2BFEF705F99DED081B53EC8D
:10D32000112BFEF7FFF80690CDE906519DED080B95
:10D3300053EC102B9DED060B51EC100BFEF793F9FF
:10D3400053EC1C2BFEF78FF953EC1A2BFEF78BF9DD
:10D3500053EC1B2BFEF78AF941EC100B9DED261BBD
:10D3600053EC102B8DED001B00959DED260B51EC21
:10D37000100BFEF77EF99DED000B41EC1A0B53EC00
:10D38000102B9DED260B51EC100BFEF76CF99DED6B
:10D39000061B53EC112B2FE0000000604715F73FF0
:10D3A000FE822B654715F73F44DF5DF80BAE543E18
:10D3B00000000000000040438E9803007AB60B0086
:10D3C000FAA4000060A5000032A4000000000000E4
:10D3D0000000000000000840000000E009C7EE3F28
:10D3E000FD033ADC09C7EE3FF5015B14E02F3EBEBA
:10D3F000BEA2000078A20000FEF73BF953EC1A2B06
:10D40000FEF790F89DED060B41EC1A0B53EC102B38
:10D410009DED000B51EC100BFEF72BF9CDE90C0143
:10D420009DED0C0B51EC1A0B53EC102BFEF77AF818
:10D43000CDE902010C46AA498C422FDB611A084350
:10D4400018D19DED0C0B53EC102B9DED020B51EC04
:10D45000100BFEF708F941EC1B0B9FEDA30B51ECF1
:10D460001A0B53EC102BFEF75DF853EC1B2BFEF759
:10D470004FFA2DD2022000F043FA00F011FA10EE1C
:10D48000901A18EE900A8DED020B8DED008B61F372
:10D490001E0003909DED020BFFF7BEBB944A24F0E3
:10D4A0000041914214D39349214408437FF4EFACE7
:10D4B0009DED0C0B53EC102B9DED020B51EC100B62
:10D4C000FEF7D1F853EC1A2BFEF722FA7FF6DFAC09
:10D4D00024F000408849894A002601EB205182420D
:10D4E0002BDA481C4FF4801121FA00F02044844AC2
:10D4F000C0F30A517A44A1F2FF3192ED000B814A48
:10D500008DED080BCA4020EA0202C0F3130040F47C
:10D510008010C1F1140120FA01F60992002CB8BF65
:10D5200076429DED080B53EC102B9DED0C0B51EC4E
:10D53000100BFEF798F8CDE90C019DED0C0B51ECAA
:10D540001A0B53EC102BFDF7EDFF9FED6F0B0890BE
:10D55000CDE9085153EC102B9DED080B51EC100B4D
:10D56000FEF787F841EC1B0B9FED690B53EC102B7A
:10D570009DED080B51EC100BFEF77BF89DED0C0BAD
:10D5800041EC1C0B53EC102B9DED080B51EC100BD8
:10D59000FEF769F853EC1A2BFEF768F89FED5E1B57
:10D5A00053EC112BFEF765F853EC1C2BFDF7BAFF7B
:10D5B00041EC1A0B51EC1B0B53EC1A2BFDF7B2FF8D
:10D5C000CDE902019DED020B53EC1B2B51EC100B2E
:10D5D000FEF749F853EC1A2BFEF748F89DED020BC5
:10D5E00041EC1A0B53EC102B51EC100BFEF741F8E9
:10D5F000CDE908014A489DED080B0521784400F06B
:10D6000097F89DED081B51EC100B53EC112BFEF716
:10D6100030F89DED021B53EC112BFEF727F8CDE9F6
:10D6200006019DED020B53EC1A2B51EC100BFEF78B
:10D6300020F853EC1A2BFDF775FF9FED3B0B41ECE7
:10D640001A0B53EC102B9DED060B51EC100BFEF753
:10D650000AF89DED060B41EC1B0B53EC102B9DEDD6
:10D66000020B51EC100BFEF704F853EC1B2BFEF7EA
:10D6700072F853EC1A2BFDF7F6FF9DED021B53ECED
:10D68000112BFDF7F0FF53EC192BFDF7EFFFCDE960
:10D69000020101EB065001150029C8BF039015DCFB
:10D6A0009DED020B324651EC100BFEF7D7F9FEF759
:10D6B00083FF042808BF00F003F932469DED020BFA
:10D6C00051EC100BFEF7CAF9CDE902019DED020BFA
:10D6D00051EC180B53EC102BFDF7CBFFFFF73ABBC7
:10D6E0000000904000000000FE822B654715973C2B
:10D6F00000CC904000346F3F01FCFFFF0000E03F92
:10D7000038A10000FFFF0F0000000000432EE63F9D
:10D71000396CA80C615C20BEEF39FAFE422EE63F60
:10D72000D09F00000000000000000000000000404A
:10D7300070B504462DED028B4D1E00EBC500B0EE1A
:10D74000408AF0EE608A90ED000B35F0060017D0AD
:10D7500053EC182B51EC100BFDF78BFF41EC100B29
:10D760006D1E04EBC50090ED001B51EC100B53EC4B
:10D77000112BFDF7D7FE41EC100B35F00600E7D179
:10D78000022D36D0042D1CD0062D1CBFBDEC028B03
:10D7900070BD53EC182B51EC100BFDF76AFF94EDA4
:10D7A0000A1B53EC112BFDF7BDFE53EC182BFDF7B4
:10D7B00060FF94ED081B53EC112BFDF7B3FE41EC19
:10D7C000100B53EC182B51EC100BFDF752FF94ED9E
:10D7D000061B53EC112BFDF7A5FE53EC182BFDF7A0
:10D7E00048FF94ED040B53EC102BFDF79BFE41EC2E
:10D7F000100B53EC182B51EC100BFDF73AFF94ED86
:10D80000021B53EC112BFDF78DFE53EC182BFDF78B
:10D8100030FF94ED001B53EC112BFDF783FEBDECA4
:10D82000028B41EC100B70BD9FED070B10B553EC54
:10D83000102B9FED070B51EC100BFDF78CFF41EC0B
:10D84000100B10BD000000000000000000000000F0
:10D85000000000000000F03F10B553EC102B51EC1D
:10D86000100BFDF75FFE41EC100B10BD10B553EC33
:10D87000112B51EC100BFDF755FE41EC100B10BDB8
:10D880009FED050B10B553EC102B51EC100BFDF771
:10D8900062FF41EC100B10BD000000000000000012
:10D8A0009FED050B10B553EC102B51EC100BFDF751
:10D8B000E0FE41EC100B10BD000000000000007005
:10D8C0009FED050B10B553EC102B51EC100BFDF731
:10D8D000D0FE41EC100B10BD000000000000001055
:10D8E00002E008C8121F08C1002AFAD17047704729
:10D8F000002001E001C1121F002AFBD17047000087
:10D900000149086070470000582B00202DE9FF4FA7
:10D910008DB09B460F460446002606E025280BD016
:10D920005A460F999047641C761C20780028F5D140
:10D9300011B03046BDE8F08F0025A8460122984975
:10D9400000E0054314F8013F203B02FA03F00842CF
:10D95000F7D120782E2817D114F8010F45F00405CF
:10D960002A280ED06FF02F022078A0F1300109296B
:10D970000AD808EB880102EB410100EB0108641CA6
:10D98000F2E757F8048B641C20786C280DD004DC77
:10D990004C2812D06A2811D104E074280DD07A28BE
:10D9A0000CD10AE045F4001507E0617845F48015D4
:10D9B000814202D1641C05F58015641C2278692A15
:10D9C00045D008DC002AB3D0582A69D0632A10D089
:10D9D000642A08D13BE0702A67D0732A13D0752AD5
:10D9E0005CD0782A5CD010465A460F999047761C36
:10D9F000D3E017F8040B8DF8000000208DF801002B
:10DA0000E946012003E057F8049B4FF0FF30690717
:10DA10004FF0000501D40AE06D1C45450DDA854242
:10DA2000FADB19F805100029F6D106E06D1C8542D5
:10DA3000FCDB19F805100029F8D12E4404E019F890
:10DA4000010B5A460F9990476D1EF8D2A5E00A20A7
:10DA50000021CDE90801C5F3025002280DD001CF05
:10DA6000C117031E71F100030DDA4FF0000CD0EB6B
:10DA70000C006CEB01012D2308E0FF1D27F00707C8
:10DA8000F7E80201EDE72B0504D52B238DF82830AC
:10DA900001233BE0EB0739D02023F7E70A2000E021
:10DAA00010200021CDE9080107E01020002145F0F9
:10DAB0000405CDE908014FF00808C5F3025002281B
:10DAC0000FD001CF00214FF0000A2B071FD5702A7D
:10DAD0000DD0DDE908C38CF0100C5CEA030C0CD00F
:10DAE00015E0FF1D27F00707F7E80201EBE74022EA
:10DAF0008DF828204FF0010A0BE050EA010306D010
:10DB000030238DF828308DF8292002239A46582A90
:10DB100004D024A20DF120090B9209E026A2F9E716
:10DB2000DDE90823FDF756FC0B9B9B5C09F8013DE2
:10DB300050EA0102F4D1ADEB0900203008906807EB
:10DB400001D44FF001080899884502DDA8EB0100D7
:10DB500000E000208046002506E00AA85A46405D05
:10DB60000F9990476D1C761C5545F6DB04E030207C
:10DB70005A460F999047761CB8F10001A8F10108A8
:10DB8000F5DC05E019F8010B5A460F999047761C11
:10DB90000899481E08900029F4DC641CC5E60000C2
:10DBA0000928010030313233343536373839616273
:10DBB0006364656600000000303132333435363737
:10DBC00038394142434445460000000070B50C46D8
:10DBD0000E49064600201546087150210C48FDF7F5
:10DBE00082FC0A4805EB85019830002340685022EA
:10DBF00000EB011060602146054807F077FC5022D9
:10DC000003493046FDF748FC002070BDA0290020E4
:10DC10008839002070B50C4610490646002015468C
:10DC2000C87050210E48FDF75EFC502231460C486A
:10DC3000FDF732FC094805EB85019830406800EBA0
:10DC4000011060605021204607F0BEFB00235022E7
:10DC50000349204607F0F8FC002070BDA0290020F1
:10DC6000383900200A68531C0B60107070470000A0
:10DC700010B5002409231D2268210548FEF762FC27
:10DC8000002803D0641CE4B20A2CF3D910BD0000B4
:10DC900094730200F8B5054640680E4E0E4C00889D
:10DCA000B08400B2206400F037FD307308F06AFAE7
:10DCB000287830B90121686806F0D4FA08B100F07C
:10DCC0008FF94FF20100ADF800006168684688479F
:10DCD000F8BD0000A0290020C84900201CB511494A
:10DCE000D1E90501CDE900010F48104990F8240061
:10DCF0008DF80600002006F0A1FB08B100F070F9D5
:10DD00006946002006F01EFB08B100F069F9012108
:10DD1000074806F0A7FA08B100F062F906F004FC23
:10DD20001CBD000078740200C8490020F15E0200AA
:10DD3000C62900202DE9F043BFB081464FF43E755F
:10DD4000382101A8FDF7CFFB182123A8FDF7CBFB55
:10DD50004FF002088DF8748015208DF875004A4840
:10DD6000FF2210210746FDF7B7FB474E703ED6F85D
:10DD700019003067B6F81D00A6F8740006F15C04BF
:10DD80004FF6FF70A084E08439461DAF1022B81C06
:10DD9000FDF782FBA08C8DF88700A08C000A8DF81F
:10DDA0008600E08C8DF88900E08C3821000A8DF81F
:10DDB0008800C3208DF88A000FA8FDF794FB0A2085
:10DDC0000124CDE902508DF805408DF81040322134
:10DDD000CDE90551CDE908508DF81C408DF828405B
:10DDE000CDE90B51CDE90D5474DF0025B9F1010FD8
:10DDF00037D056F8190F2390B088234EADF8900015
:10DE00008DF89250E03E8DF8934036F8802F25A88B
:10DE10007168FDF741FB8DF83C808DF83E4006208F
:10DE20008DF83F0019483821C0683D903DA81490F6
:10DE3000ADF84C402CA8FDF756FB23A83C90308849
:10DE4000134B0830ADF8EC003AA88DF8B05001AA99
:10DE50002CA9009535900FA800F0D4FD3FB0BDE887
:10DE6000F0838DF83C5004208DF83F004C20ADF835
:10DE7000A4001720ADF8A80029A82B97044B01AAED
:10DE8000002100951890E6E7A84A00207874020067
:10DE9000914C020074DF002001F066BD054B0122A9
:10DEA000824093F8280009B1104300E0904383F8C2
:10DEB000280070471465002070B50024064D06E068
:10DEC0006868012110F8340005F088FD641C28788A
:10DED0008442F5D3002070BD002B0020F8B5154614
:10DEE0000C460646052A01D20720F8BD05F058FE6B
:10DEF00018B905F02BFE0028F7D1104900204E601C
:10DF00000C70C1E902500E4D08610DE006EBC40033
:10DF10006968009181788DF801100078094A694696
:10DF200005F0AEFD0028E0D1641EE4B2EED2BDE8FB
:10DF3000F840054A0021024800F0ECBA002B00200E
:10DF400058750200311A0200C10602003EB50446AF
:10DF500004200190184802904FF6FF75694620464C
:10DF600002F070FD30B1A0F50041403901D000F061
:10DF700037F83EBD10487C3890F87C10C90716D0A1
:10DF80002A460C21008AA7DF88B1A0F5405102394A
:10DF90000DD008280BD0A0F54051043907D0112826
:10DFA00005D043F20141884201D000F019F8204623
:10DFB00002F0FEFC3EBD00001C2A0020BFF34F8F84
:10DFC00005480168054A01F4E06111430160BFF3AF
:10DFD0004F8F00BFFDE700000CED00E00400FA05E4
:10DFE0000EB500210091CDE901106A4644F201000E
:10DFF000FFF7E4FF014B1B68184700003064002066
:10E0000038B50C46074BA268097802EB420253F878
:10E010002250054A126A0092024604F10800236960
:10E02000A84738BD48680020DC2A0020074910B501
:10E030000A7802EB820201EB8201091DFFF7E0FF83
:10E04000BDE81040042008F079B90000EC6500201C
:10E0500030B542680B4C1379E15C0120FF290ED0EA
:10E06000FE290DD012684FF4A86505EB81015158C7
:10E07000054A52F82320914202D1FF20E0540020AB
:10E0800030BD0000152B00208068002003681B8B2A
:10E090009BB253436422B3FBF2F292B2AFF300801F
:10E0A0002DE9F04188460446056801EB480005EB80
:10E0B000800795F823001646022802D00820BDE804
:10E0C000F0817868B04205D1E969E9B36068007908
:10E0D00088473DE02046FFF7BBFF08B11120EEE77F
:10E0E00061681C4AFE2009795054796811B1A86909
:10E0F00081420FD316B1A869B04205D832464146D5
:10E10000204607F029FC13E032464146204607F03E
:10E110005BFC0DE00EB1B04205D8324641462046C8
:10E1200007F0DEFC04E032464146204607F060FD81
:10E130002068C06940B16068074A0221007902EB9B
:10E14000400202F8081000E002E0606806F05FFAA2
:10E150000020B4E7152B0020946800202DE9F84F2B
:10E1600005688A46064601EB4A0795F8230099465A
:10E17000904605EB870410B10820BDE8F88F4FF0FA
:10E18000000B2E48C4F804B084F80A900068009090
:10E190000A21306801EB8701405C48B15FF0000064
:10E1A0008DF801006946104605F00CFDA8B901E0A4
:10E1B0000120F5E745F82780012707FA08F0B9F1B3
:10E1C000000F01D01E4901E01D49091F086000250C
:10E1D0006019083005F050FE08B10420CDE76D1C31
:10E1E000EDB2022DF4D3207A05F0A8FE607A05F096
:10E1F000A5FE206805F04AFD05465146706806F008
:10E20000F7F90146207A2A4605F07AFE206805F0E3
:10E210003DFD05460221706806F0EAF90146607A84
:10E220002A4605F06DFEE7727168064A097902EB2D
:10E23000410202F80AB000209FE70000607502006A
:10E240000C050050946800202DE9F0410646D6E9FF
:10E25000007006F0EDF90221706806F0D1F9002493
:10E26000381990F8200005F069FE641CE4B2022C15
:10E27000F6D300254FF0010805EB450007EB8004BD
:10E28000E17AA1B10A22316802EB8000085C002823
:10E29000207808FA00F112D00A480160206805F0E1
:10E2A000FFFC207A05F04AFE607A05F047FE6D1CFF
:10E2B000EDB2022DE0D387F82380BDE8F08101485C
:10E2C000001FEAE70C0500502DE9F0470025DFF8B4
:10E2D000689007680446A846626805EB450007EBAE
:10E2E0008006137909EB430202F80580F17A71B1D7
:10E2F0000A22216802EB8000085CD8B10021306856
:10E3000005F0FAFC306805F0DDFCC6F804806D1CF1
:10E31000022DE1D36168094AFF20097950546068F1
:10E3200006F051F9606806F091F9022087F82300A1
:10E33000BDE8F0870121E2E794680020152B00205A
:10E340002DE9F74F86B00E00054607D02C6894F8EB
:10E35000230028B1082009B0BDE8F08F0B20FAE7B0
:10E3600005F05EFF18B1852801D00420F3E705F021
:10E3700017FC20B905F0EAFB08B10320EBE703A87E
:10E3800006F094FB9DF80C00DFF84CA100224FF042
:10E39000010B062802D38AF800B001E08AF80020B9
:10E3A000FF2184F8201084F8211084F82210002026
:10E3B00089464FF0FF3C00BF00EB400704EB8703AA
:10E3C000401CDA7283F8089083F80990C0B244F8D0
:10E3D00027C00228F0D30027E019203005F04CFDBB
:10E3E00040B97F1CFFB2022FF6D304F1220005F0E2
:10E3F00083FE18B1284607F035FAB6E75FF000074C
:10E4000056F82720501C12D0F0193946037A2846B6
:10E41000FFF7A4FE5FEA000804D0284607F022FABE
:10E42000404698E7002239462846FFF739FE7F1C10
:10E43000FFB2022FE4D3002009224FF48053316948
:10E4400001E04908401C994201D39042F9D39AF85F
:10E45000001009B100B90120204AD2E90112CDE92A
:10E4600001128DF8040068681D4A01A90079029024
:10E47000686806F00FF9070004D0284607F0F2F9A3
:10E48000384668E7686831690068D0F810050E0101
:10E49000C640A661686806F096F8CDF800B05F4601
:10E4A000042332460221686806F0DEF8022168681B
:10E4B00006F0A6F80898E06168680A49064A0079FB
:10E4C000521C41F820506968097902F8019084F8DB
:10E4D000237000203FE70000142B0020607502002D
:10E4E00001590200A068002070B50468054694F840
:10E4F0002300022801D050B102E02846FFF7A4FE15
:10E50000284607F0AFF9002084F8230070BD0820EA
:10E5100070BD0000074B9B6823B12AB120B1006891
:10E52000037C1BB10820704707207047417442618B
:10E53000002070471C2B00202DE9F04780469946AB
:10E5400014460F4690074FF0000634D11C4D8CB393
:10E5500007F058FC0320C5F81490287004F1180047
:10E56000002107EB4703AC6004EBC102491C1670A5
:10E5700056709770506000EBC3000329F4DBEE6027
:10E580006E70AE701420FDF7F5FB03211420FDF72B
:10E5900012FC1420FDF7F9FB0A49C1F800800321A1
:10E5A0001120FDF708FC0748001F006828610020C3
:10E5B000BDE8F08701E00720FAE7AE60FBE7000066
:10E5C0001C2B0020081501402DE9F843DFF870905E
:10E5D0000D461746D9F80810044651B34CB3052D23
:10E5E00002D20720BDE8F883606910B3607C01287F
:10E5F00021D0002608F0EEFDD9F80810804601EB86
:10E60000C800694608F008FEB8B1012100F8041BF3
:10E610000C4910C0096880E8E200D9F8081001EB45
:10E62000C8009DF8001041701420FDF7B9FB0020D0
:10E63000D8E70820D6E72E46DCE70420D2E7000022
:10E640001C2B002004150140F8B5124E0446B16899
:10E65000E1B1DCB16069C8B10027277408F0BAFDE8
:10E660000546B068694600EBC50008F0D5FD78B1F5
:10E67000022101704460B0689DF8001000EBC500F5
:10E6800041701420FDF78CFB3846F8BD0820F8BD1A
:10E690000420F8BD1C2B00200349084201D10120B1
:10E6A000704700207047000000C0F0FF70B51648AA
:10E6B000164CC168491DC160A069401DA061208938
:10E6C000E0606079012801D16089E060E568284652
:10E6D000FDF7C1F89FED0E1B53EC112BFDF73BF836
:10E6E000FDF7E5F80521B5FBF1F201FB12512061C0
:10E6F000032901D3401C206100EB8000E060BDE8ED
:10E70000704002F05BBE0000E428002024370020A7
:10E71000000000000000144010B5194A2DED028BD6
:10E72000516B814202D9916B814200D3084602F0BD
:10E73000D9FCFDF790F89FED130B41EC180B53EC4F
:10E74000102BFDF7CDF802D29FED108B0AE09FED64
:10E75000110B51EC180B53EC102BFDF7D9F801D22B
:10E760009FED0E8B51EC180BFDF7A1F8C0B2FDF731
:10E7700072F8FDF79CF8BDEC028BC0B210BD000032
:10E78000C8490020000000000000F03F0000000029
:10E79000000000000000000000C058400000000021
:10E7A0000000594010B5A0F26320FDF754F89FED2A
:10E7B000081B53EC112BFCF7CEFF9FED071B53EC0E
:10E7C000112BFCF756FFFDF772F8C0B210BD000028
:10E7D0000000000000C05740000000000000594049
:10E7E00010B5FFF77BFABDE810403C21014808F066
:10E7F00011B80000FC2900200648C16D002907D08F
:10E80000C16D026C914203D10021C165FFF7E8BFE1
:10E8100070470000A02900202DE9FC47002517883B
:10E820000646158090F82D001446894630B13A46C8
:10E830002146484600F08AFA050009D1B0784FF029
:10E840000C0A18B32088C846001DB84202D95046A9
:10E85000BDE8FC87684679DF0028F9D120880321CC
:10E8600008F8001020881921401C80B2208008F888
:10E8700000102088401C80B2208000EB0801BDF809
:10E88000000008F04FFC218808442080F078022224
:10E89000C8B1218896F9033001F1030C4846BC4504
:10E8A000D5D8425421884FF0010C491C89B22180EF
:10E8B00000F801C02188491C89B2218009F8013083
:10E8C0002088401C20807068B8B1218890F9003001
:10E8D00001F1030C4846BC45B9D8425421880A22AC
:10E8E000491C89B2218042542188491C89B2218067
:10E8F00009F801302088401C2080308950B1CDE9D2
:10E9000000474B460622022106F1080008F0A4FC4D
:10E9100005009DD1308A50B1CDE900474B46072212
:10E92000032106F1100008F097FC050090D1308B10
:10E9300050B1CDE900474B461522142106F11800CD
:10E9400008F08AFC050083D1306A30B13B4622468C
:10E95000494601F0BFFC0500DBD1706A30B13B468F
:10E960002246494603F058FC0500D2D196F82C0007
:10E9700038B13B4622464946304607F057FB050072
:10E98000C7D1307838B13B4622464946304604F07C
:10E990009CFF0500BDD128465AE7F0B50C4693B060
:10E9A0001F210726ADF80010ADF80410002750B164
:10E9B000C17849070DD56A4602A9FFF72DFF002847
:10E9C00008D102AD02E00025ADF800706CB1E0782E
:10E9D00010B1304613B0F0BD01AA0AA92046FFF7D6
:10E9E0001BFF0028F6D10AAA02E00022ADF804704D
:10E9F000BDF80400C3B2BDF80000C1B2284672DF02
:10EA0000E8E7000070B50D460499164604003AD0B8
:10EA1000C6B33E480022C270C0E9023138223146F6
:10EA20003B48FCF739FD00F0BFF839483821383849
:10EA3000FCF759FD3648217838380170A17881708B
:10EA4000E178C17061784170D4E90412C0E9041220
:10EA5000D4E90212C0E90212D4E90612C0E9061292
:10EA6000616AD1B100F1700100F17C0241628A60FB
:10EA7000636A1B880B80616A436A898899800021D8
:10EA8000436A07E0FFE70E2070BD666AB668765CF1
:10EA90005654491C9E888E42F7D8A16AD9B11C4AA7
:10EAA0007032A2F10C018A608162A36A9B888B801C
:10EAB000A16A836A098819800021836A04E0A66A32
:10EAC000B668765C5654491C9E888E42F7D894F8F6
:10EAD0002C1080F82C10216A49B10C4910310162C8
:10EAE000226A52884A80216A026A09881180616814
:10EAF00021B10649091D4160616841602946BDE8B0
:10EB0000704003483838FFF748BF00001429002040
:10EB1000AC37002010B50188154C10291ED01929DA
:10EB20001CD18079D0B90020A070E078072815D2D8
:10EB3000DFE800F01404060A0C0A0E00022000E0D0
:10EB4000032000F039F805E00420FAE774DF05E05F
:10EB50000B21A17010B1E16801B18847A078A168CC
:10EB600051EA000202D0BDE81040084710BD000085
:10EB70001429002010B5022801D0032810D1094C17
:10EB8000207800280CD000202070E07800F014F8E5
:10EB9000002805D0E168002902D0BDE810400847F0
:10EBA00010BD0000142900200248002141610183AA
:10EBB00081767047142900202DE9F041484C88B037
:10EBC0000026E07006A8069606F0C2FB012708287A
:10EBD00005D000285FD1069810B127705AE006963C
:10EBE000FFF7E2FF3F4D687810B1E078012804D0CC
:10EBF000287B48B1E078022806D1A16819B1677076
:10EC00000920884700E06670354FE07814374FF0F0
:10EC10000308012805D1687838B1781C06F06AFA33
:10EC200018B1E078022802D009E00220E070287BC9
:10EC300018B1781C06F05EFA08B984F80380287EC3
:10EC4000042718B9E078032800D1E77095F824006C
:10EC500020B9E078042801D1E670A6701821684632
:10EC6000FCF741FC8DF8006001968DF80860039672
:10EC7000E078032812D004281ED0052817D00628D3
:10EC800022D018B1684673DF002804D1A16809B109
:10EC9000A0788847002008B0BDE8F081288CADF846
:10ECA0001200A88BADF8100084F80280EAE7288CE7
:10ECB000ADF81200A88B03E0A88DADF81200288DE6
:10ECC000ADF81000A770DDE78DF800800A20A07075
:10ECD000288CADF81200288EADF81000D2E70000A5
:10ECE00014290020AC37002070B5054601461C22CF
:10ECF0000F48FCF7D1FB0F4C00262670286830B176
:10ED0000016861604068A060201D7ADF02E0094868
:10ED1000001D7BDF00280AD14FF6FF70608066700F
:10ED2000BDE87040044A00210448FFF7F3BB70BD02
:10ED300074640020BC2A002051710200D4740200C7
:10ED400001480068FFF780BCD47402007CB505461A
:10ED500008880C460930904201D90C207CBD6846D9
:10ED600071DF0028FAD121880820685420881B21EF
:10ED7000401C80B2208029542088401C80B2208012
:10ED80002844DDF801100160BDF80510818020885D
:10ED9000801D80B220809DF8001001B1012129540E
:10EDA0002088401C208000207CBD000030B585B04C
:10EDB0000D46040039D0BDB36868A8B31C4B4FF6AC
:10EDC000FF7020800FCB0DF1040C8CE80F0041F296
:10EDD0003050ADF8000001A8811E63DF002821D16A
:10EDE000221D69460120A0DF00281BD19DF80200EA
:10EDF000A071204601F03EFD002813D1204601F00D
:10EE0000EBFC00280ED12946204601F081FD0028A8
:10EE100008D16868A062A86800B1E06205490120D5
:10EE20000870002005B030BDFFE70E20FAE70000B3
:10EE3000547402002F2900203EB500283ED000293E
:10EE40003CD0826A002A39D00A88102A23D0112A9D
:10EE50003BD0502A21D0512A30D1044688798A1DCE
:10EE600002282BD15088238A984227D1887A0428F7
:10EE700024D0062822D0052820D0911C4FEA040077
:10EE800005F084FF002819D0E16A002916D003B0EC
:10EE9000BDE830400847898819E00446C8882289BF
:10EEA00090420CD108208DF80000887F20318DF829
:10EEB00008000191A26A6946204690473EBD228A19
:10EEC0009042FBD12046891DDAE74FF6FF710180A1
:10EED0003EBD000030B585B028B30388A3F57F445C
:10EEE000FF3C22D0124B1B78FBB1114B10255B1C51
:10EEF00000241D7059709A7001250321ADF810107F
:10EF00000094019402940394018AADF8001004A9BE
:10EF1000CDE902138DF80250ADF80440008869462F
:10EF2000A6DF05B030BD0E20FBE70820F9E70000A2
:10EF30002F2900207FB5044601208DF8060041F6F8
:10EF40000A00ADF80400454A01A90120A0DF00280D
:10EF50007ED1228804F13C0552B140482B46801CEA
:10EF6000009042F62920616800F08AFF002873D1E2
:10EF7000228952B139482B460A30009042F62420AB
:10EF8000E16800F07DFF002866D1228A52B1334843
:10EF90002B461230009042F62520616900F070FF88
:10EFA000002859D1228B52B12C482B461A300090A0
:10EFB00042F62720E16900F063FF00284CD1228C43
:10EFC00052B126482B462230009042F62620616A34
:10EFD00000F056FF00283FD1228D52B11F482B462A
:10EFE0002A30009042F62820E16A00F049FF00280C
:10EFF00032D1216B71B102A807F0CBFB17482B4629
:10F0000032300090082202A942F6232000F038FF97
:10F01000002821D1606B58B110492B463A3100913C
:10F020000279016842F62A2000F02AFF002813D155
:10F03000A16B81B102A806F002F908482B464230C4
:10F040000090072202A942F6502000F019FF00E0CC
:10F0500002E0002800D1002004B070BD582A002032
:10F0600010B5044601460548FFF7E6FE2046FFF7C7
:10F0700051FD2046BDE8104005F024BE584A00204E
:10F0800030B595B041F6310506F000FA04F02CF8E1
:10F0900040216846FCF727FA9DF83C0020F00F005D
:10F0A000401C20F0F00010308DF83C009DF83D0031
:10F0B00020F0FF008DF83D006846FFF73BFF002081
:10F0C000119013900F4801241290ADF8444011A9FB
:10F0D0000D48FFF76BFE0D4801F078FB0C48807B74
:10F0E00001F062FB084A8DF84240883AADF8405082
:10F0F00010A90120A0DF109800F012FF15B0002029
:10F1000030BD0000B9070200584A0020895D0200A6
:10F11000A029002070B588B0002401941646ADF8EF
:10F1200004109DB20290ADF8064001AA294630466F
:10F13000A4DF002815D1A6F57F40FF3813D0039433
:10F14000ADF80C5001208DF80E000494BDF80600B7
:10F15000ADF8100001A805900298069003A930466A
:10F16000A6DF08B070BD0820FBE70000084810B516
:10F1700000214182818241F2EA510648FCF7B3F94D
:10F18000BDE81040044A00210448FFF7C3B900005D
:10F19000A0290020EA4A0020E1F101008074020069
:10F1A00070B588B00646AA200D468DF8080002AC5E
:10F1B0001421601CFCF797F92A463146601CFCF7C5
:10F1C0006BF906988DF81D500090BDF81C00ADF845
:10F1D000040094E80F0006F0E3FA08B070BD0000E8
:10F1E000F8B5184DA868FFF72FFA43F2040606F0A9
:10F1F00041F804460078AA2803D000224FF40041C9
:10F200001AE01148006A00900F48617D028D1038A5
:10F21000C36A601CFFF77EFF0C490022B0420863FE
:10F2200003D02270888A401C8882888AFE2800D9F0
:10F230008A82002240F28F21A868BDE8F840FFF7DB
:10F24000C3B9000078740200C8490020A02900203A
:10F2500070B50B4D0446287828B10120A8701CB960
:10F2600002F0DEFC0AE04CB1287938B102F0E2F994
:10F2700020B902F09DF8697F06F0FAFD2C7070BD90
:10F280002437002038B55020009000230322124973
:10F29000124803F017FF114C2078FF2801D102F02B
:10F2A000D3FC00202070A061606102F0B9FC0C4A20
:10F2B00001210C48FFF72EF9207F07F039FFE07994
:10F2C00006F08CFE074800224FF420310068FFF75B
:10F2D0007BF9002038BD00000C29002024370020D5
:10F2E000ADE60100507402000A780270497841705E
:10F2F0000220704700B585B0002348220F49022044
:10F3000007F064F808B1FEF76BFE6A4601210020A1
:10F3100007F046F801208DF80C00094806F0FAFDC8
:10F3200008B1FEF75DFE684607F030F8054807F0C3
:10F3300023F8054807F062F805B000BDD839002071
:10F34000001E002061F001008167020010B5044634
:10F35000174805F067FC13211548FCF7C4F8132281
:10F3600021461348FCF798F8114C00206082608811
:10F37000642801D86420608001202075607905F040
:10F3800049FD608A4FF4FA72401C60826088002355
:10F39000410CC003801841F100015200FCF71AF83B
:10F3A0000146044800224068BDE81040FFF70CB950
:10F3B000D46000207874020010B505F01BFC0E4CE0
:10F3C000608A2178884204D3002060822079401E20
:10F3D00020710948618A401D085C05F01BFD608AA8
:10F3E000401C60822079002804D1BDE8104002480A
:10F3F00005F018BC10BD0000D46000202DE9F04FCE
:10F4000091B003208DF8040001208DF805008DF8DF
:10F410000600002601A9122004F0D4FB122004F0FB
:10F420002DFC784CB24604F120001090801C0F9007
:10F43000801C0E90801C0D90801C0C90801C0B90EA
:10F44000801C0A90801C0990801C0890801C0790EA
:10F45000801C0690801C0590801C0490001D039069
:10F46000801DE94604F13A0B029088227621664815
:10F47000109BFCF743FD05468A22762162480F9BCC
:10F48000FCF754FD40EA05078C2276215E480E9B6E
:10F49000FCF74CFD40EA07058E2276215A480D9B69
:10F4A000FCF72CFD40EA05079022762156480C9B7C
:10F4B000FCF73CFD40EA07059222762152480B9B5F
:10F4C000FCF734FD0543942276214F480A9BFCF754
:10F4D0002DFD40EA0507962276214B48099BFCF753
:10F4E00025FD40EA0705982276214748089BFCF74E
:10F4F0001DFD40EA05079A2276214348079BFCF749
:10F5000015FD40EA07059C2276213F48069BFCF743
:10F510000DFD40EA05079E2276213B48059BFCF73E
:10F5200005FD40EA0705A12276213748049BFCF738
:10F5300011FD40EA05075B46E12276213248FCF7DF
:10F54000F5FC40EA0705E32276212F48039BFCF7F0
:10F5500001FD40EA05088DF800A055468DF801A090
:10F560006B46E42276212848FCF7F4FC40EA0807C1
:10F5700009F10103E52276212348FCF7EBFC40EA80
:10F5800007089DF800109DF801006B4661F31F10FD
:10F59000E0878DF800508DF80150E62276211A4858
:10F5A000FCF7D8FC40EA080509F10103E5227621C1
:10F5B0001548FCF7CFFC05439DF80000E722010148
:10F5C00041EA1010A4F8400076210F48029BFCF796
:10F5D000C1FC05430423F22276210B48FCF7B2FF5D
:10F5E00005436D23F42276210748FCF7ABFF28433F
:10F5F00004D0761CF6B20A2E7FF637AF11B0BDE804
:10F60000F08F0000DC2B00208C73020008B5032073
:10F610008DF8000000208DF8010001208DF8020017
:10F620006946122004F0CEFA122004F0C3FA122028
:10F6300004F024FBFFF7E2FE08BD000070B50024D3
:10F640006D23F42276210548FCF77CFF2843050052
:10F6500003D0641CE4B20A2CF2D970BD8C73020092
:10F66000F8B50821ADF8001001236A461549AADF54
:10F67000154800688047B12044DF11DF4FF01024A7
:10F68000606913DF01214FF0E0208A05C0F8802275
:10F69000D0F800315FF0000001FA00F21A420AD0FF
:10F6A00042B202F01F0601FA06F55209920002F179
:10F6B000E022C2F88051401C2028EDD3606900F0A0
:10F6C00005F8F8BD7038002038290020FBF71ABE75
:10F6D0007CB50C004FF0000515D06946002000F005
:10F6E00075F8002810D101A9012000F06FF800285A
:10F6F0000AD19DF8041009B1022003E09DF8001022
:10F7000001B10B20207028467CBD00002DE9F04798
:10F7100006462C480068B0424FD12A4F0A00A7F194
:10F720004D07A7F1030507F149082B6CDFF8989006
:10F7300098F8004098F8010003EB83014FEA81013B
:10F7400020D0012A16D0022A39D0032A35D13220FE
:10F7500003FB00F198F80340AA1CD9F80400FEF757
:10F7600033FF002C29D0A96C002926D02046BDE803
:10F77000F04708476A783AB112E000BF98F80200F3
:10F780003870EEE76A785AB10028F7D00D4AD9F8F8
:10F7900008004E3AFEF718FF0028EFD1AE70EDE7F3
:10F7A000D9F80400FEF750FFD9F80800FEF74CFF27
:10F7B000387898F80240A042D3D0BDE8F0870446DC
:10F7C000CFE70000902900206474020008B10020F7
:10F7D00009E006480068C2430548037801209840C4
:10F7E000104000D001200870002070471005005024
:10F7F000902900207CB545490022ADF8042003463D
:10F80000414C886B4FF60C260D2B0CD00E2B55D08F
:10F810000F2B35D0102B05D101F0BEFB002870D086
:10F8200006F02EFE7CBD4FF20605012804D002280A
:10F830000CD004285CD10CE03448443002603448D9
:10F8400005F0F0F9012005F0E5FA51E001F0F2FAD7
:10F850004EE02E486C300260087840B12B494FF4DE
:10F86000FA7300221831022001F0C4FA02E00020ED
:10F8700002F030FDADF8005061686846884737E017
:10F880004FF20705012806D004280DD0052810D016
:10F8900006282DD110E004208863012005F0D6F958
:10F8A000002002F017FD23E01848401C06F096FCEB
:10F8B000E0E700F077FA1BE0FCF78EFA4FF208055C
:10F8C000012802D0042813D1D4E7002000F04CF81E
:10F8D0004FF20B00ADF800006168684688470B499D
:10F8E00096230A221A31022001F084FA00F0D4FE95
:10F8F000ADF80450022201A9304603F079F87CBD2E
:10F90000FFE74FF20905B5E7C8490020A02900200C
:10F91000D460002003004FF0000011D1114B012AE8
:10F9200007D199B101290DD002290DD0032910D09A
:10F93000002261B101290ED002290ED003290ED078
:10F94000072070470D22F4E70E22F2E70F229A708B
:10F9500070471022EDE71A7070475A707047DA70DE
:10F96000704700008C290020054A0146002092F8CB
:10F970004420D20702D0084600F004B870470000C7
:10F98000402900202DE9F04104463648002564272F
:10F99000334EC1690B2C5FD2DFE804F0065E5E09CE
:10F9A0005E3A5E1D5E3D5D000646806A1DE00546CE
:10F9B0000846FCF79FF90028E86904D0FCF776F9BF
:10F9C0004FF4E16002E0FCF783F9C820B0FBF7F1E7
:10F9D0002C70286C1AE003460846FCF78BF940B1FE
:10F9E0001E46D869FCF762F9706AFCF75FF934705B
:10F9F00032E01D46D869FCF76BF9686AFCF768F9D4
:10FA00004FF4FA71B1FBF7F12C70286C41431CE004
:10FA100006460846E6E70746006AFCF76BF940B180
:10FA2000386AFCF743F90020FFF79EFF002038708A
:10FA300012E0396AB86A8843FCF738F9386AFCF78B
:10FA400047F93C70386CC0EBC00100223068FEF70B
:10FA5000BBFD054600E004702846BDE8F0810000CB
:10FA6000647402004029002000780321FFF74EBE95
:10FA700000780221FFF74ABE30B515498DB0044623
:10FA8000486D099051F8480F0690486807908868BB
:10FA90000890087C0A900D7F8DF82C50182206A93A
:10FAA0006846FBF7F9FC2B460A4A40F6CD41032095
:10FAB00002F066FC0CA90020FFF70AFE9DF830005A
:10FAC000022803D0002020700DB030BD0120FAE7DD
:10FAD000C8490020F5F7010030B5044685B01A4842
:10FAE000FEF702FD2046FBF7B6FE41EC100B9FED42
:10FAF000171B53EC102B51EC110BFBF72CFEFBF7F3
:10FB0000D6FE11490546142280316846FBF7C4FC35
:10FB1000104A69460C480495FEF712FC0A48FEF7A5
:10FB2000D3FB44B10A2200210748FEF7AFFA11289F
:10FB3000F8D005B030BD002211460348FEF7A6FA02
:10FB40001128F8D0F5E700009C73020000000000C7
:10FB500080842E41FF5802001E4810B5B0F80310F3
:10FB6000C38F4ABA9203C169A2EB0352B0F9403085
:10FB7000A1F5963103FB112290F9423090F83C40F8
:10FB80004B434C434FF400419B1201EBE4214B43A8
:10FB90004FF4001101EBA321B0F93A3002F5804295
:10FBA000594301F50051D21389134A43D1134943F4
:10FBB00090F83830C9115943B2EB211101D5002119
:10FBC00004E04FF0C852914200DD11460913890A42
:10FBD000417410BDDC2B00202DE9F05F5B4C4FF031
:10FBE000000B6079A179000440EA0120E179B4F9C1
:10FBF000305008434FEA201AE0695549C2174118AE
:10FC000042F1FF30A1FB0123A2FB058700FB01337A
:10FC100001FB0033EE1703FB057502FB0659B4F92F
:10FC20002E50A5FB017CEE1706FB01C605FB006507
:10FC30006E0446EAD7367F0417EB080746EB090641
:10FC4000B4F92C501BEB070946EBC505B4F92A6043
:10FC5000A2FB06C803FB06834FEAE67702FB0732E6
:10FC6000B4F928604FEA1C23A6FB01C84FEAE677E7
:10FC700007FB018106FB00104FEA003143EA0263F3
:10FC80004FEA0C3041EA1C51181841EB2222001CAB
:10FC900042F50043E28CA0FB026703FB027200FB0B
:10FCA0000B204210C317CAF58010C117C90741EADB
:10FCB0005001C007B0EB090661EB050140F6354580
:10FCC000A6FB050C01FB05C1002706FB0711FBF78E
:10FCD000B2FBB4F93630420B42EAC142A3FB027CCC
:10FCE000DD1705FB02C54E1303FB0653A7FB025CA1
:10FCF00003FB02C207FB06236A0E42EAC3125E162A
:10FD0000B4F93430A3FB007CDD1705FB00C503FB11
:10FD10000155FB0C801843EA45337141C01841EB93
:10FD2000E5414FEA016242EA1021B4F932004FEA9C
:10FD3000001008184FEA106161754FEA10412175F3
:10FD40004FEA1021E174A074BDE8F09FDC2B002085
:10FD5000000CFEFF124810B501784278090441EA10
:10FD600002218278038C11430911CA10A2EB4302CD
:10FD7000C3EB2111B0F922404943B0F9243062436A
:10FD80000913D212594302EBA131C16101EB810188
:10FD900080310912642291FBF2F1017410BD000060
:10FDA000DC2B002010B504F025FF034904208863F4
:10FDB00000207031086010BDA0290020F8B507466A
:10FDC000104800252C46C5610562142003F0F2FEA0
:10FDD0000023F4225A210C480094FBF79BFF0646AF
:10FDE0003B4601225A210848FCF7ACFB304303D0C4
:10FDF0006D1CEDB20A2DEBD9BDE8F840142003F0DC
:10FE00003DBF00001C2800209473020005494FF0FC
:10FE1000FF32082841F8202002D3084480F8482007
:10FE20007047000090640020F0B54FF0FF3512B12C
:10FE30000023082601E008230C260C4C05E000BF37
:10FE400054F823707F1C04D05B1CB342F8D32846BF
:10FE5000F0BD26185DB286F8305044F82310002A11
:10FE6000F5D1E11881F84800F1E700009064002026
:10FE70000249084490F93000704700009064002067
:10FE80002DE9F0438FB01E46DDF8589015460F005F
:10FE9000804602D10020FEF7A3F815B90020FEF736
:10FEA0009FF81C216846FBF71EFB00249DF800000C
:10FEB000039440F002008DF80000012001948DF8B9
:10FEC0003600049405940694ADF834800C94307890
:10FED0008DF8300070788DF831009DF832001421D3
:10FEE00020F00600801C20F019008DF8320007A8D1
:10FEF000FBF7F9FA0DA807900CA808900748ADF891
:10FF00002450ADF82640ADF828500B974B4607AA71
:10FF100069460088A2DF0FB0BDE8F083582A0020B0
:10FF200000B58DB0174807AB0DF1100C0189ADF885
:10FF30001010C18CADF81210A0F110014A8BADF871
:10FF400018200A7F8DF81A20497F8DF81B1001694F
:10FF500005910021089109910A910B910A491422F7
:10FF6000096907910749808B1C3103920091CDE903
:10FF700001039CE8070042F6892303F0D7FB0DB08C
:10FF800000BD0000C84900207874020010B5044686
:10FF9000084606F00BF901462046BDE8104003F084
:10FFA00009BA00002DE9F0413A48017801EB8101DE
:10FFB00000EB8104D4E9030600EB40013648241D20
:10FFC00000EB8100B0F808804589476805F059FAD0
:10FFD000B6FBF0F100FB116080B3002008FB057751
:10FFE0006188A288DFF8B48011448D190022C8F816
:10FFF000102040B105F045FA6188884221D0BD4209
:020000040002F8
:1000000001D1A088E8B1A06803281AD005F039FA18
:10001000A18844463144B1FBF0F200FB1210800885
:10002000C8F80C0005F02DFAB5FBF0F100FB1150FB
:1000300078B10020BD4228D068B126E0FFE701205A
:10004000CCE705F01EFAB6FBF0F10320C8F8141057
:100050001CE00120EEE7ADB2BEB205F012FAB6FB2D
:10006000F0F705F00EFAB5FBF0F0874201D1701BF6
:1000700009E005F006FA064605F003FAB5FBF0F1D3
:1000800000FB1150301A800820610220BDE8F041C9
:1000900006F054B9EC65002048680020DC2A0020F6
:1000A0000648017801EB810100EB8100007904280A
:1000B00001D000F059B8012006F040B9EC650020ED
:1000C0000A480B4A017801EB810100EB8100C188ED
:1000D00011620079012805D0032801D0042804D139
:1000E000FFF760BF012006F029B97047EC650020DA
:1000F000DC2A002000EB80020548002100EB820092
:1001000002220171C180C0E9032141610181704770
:10011000EC6500202DE9F041114D069E6C781E2CF7
:100120001BD02F783C441E2C00D31E3C04EB8404CF
:1001300005EB840420716261D1E90001C4E9030187
:10014000E38026816878401C68700648007808B90A
:10015000FFF7B6FF0020BDE8F0810420FBE70000B8
:10016000EC650020DC2A002010B50E4C207800EB56
:10017000800004EB80010020091DFDF741FF20787D
:10018000FFF7B8FF6078401E60702078401CC0B256
:1001900020701E2801D100202070BDE810400020F2
:1001A00006F0CCB8EC6500202DE9F05F2648C16868
:1001B000F1B3DFF898B00E688146DBF800400769BC
:1001C000C078E11B21F07F45ED1CB0B9DFF88080DD
:1001D0004FF48030C8F84403C8F804031120FBF73B
:1001E000C9FD1120FBF7D1FD4FF0010AC8F800A0AE
:1001F0002F20FBF7A1F889F803A0B54200D23546BD
:10020000124BE8193C3320F07F401860DBF80010F7
:100210005A46091B21F07F41001B20F07F40C91C7A
:1002200081420FD9106818602F20FBF785F800E095
:1002300004E0BDE8F05F1120FBF7B2BDBDE8F05F60
:1002400005F0E0BDBDE8F09F1C2B00200415014027
:100250000010014030B5184DB3B00420A8634FF42E
:10026000FA73002205F11801022000F0C3FD05F128
:10027000540000240460083804604FF20300ADF815
:10028000C8000E48416832A88847012028700C48F1
:1002900004F0C8FC05F150000460C8216846FBF773
:1002A00022F908A16846FCF773F96946032002F0B9
:1002B000E5FA33B030BD0000A0290020C849002075
:1002C000D4600020434F4D504C4554455F50414948
:1002D000520000002DE9F04117880646B81D14466B
:1002E0000D46984202D90C20BDE8F08131880722E2
:1002F00006290AD34FF4486C4FF6FF73614501D9C4
:10030000994202D17088062801D21046ECE7604578
:1003100001D99842F9D1994203D0984201D0814243
:10032000F3D80520E85520881221401C80B2208097
:1003300029542088401C80B220804119308806F062
:10034000F1FE2188084480B220804119708806F0AF
:10035000E9FE2188084420800020C5E7FDF740BE63
:1003600000B587B01C216846FBF7BDF800204FF4AC
:100370002031CDE900018DF8100007484FF47021BD
:10038000059002910548032106908DF80C106846EF
:10039000FEF7AAFC07B000BD794D02005D03020024
:1003A0002DE9F047D2B00646202133A8FBF79BF891
:1003B0000024654D429443944494459446944FF0F0
:1003C0000309479405F15400C5F8389004600A21E8
:1003D00006F020FA5D48FF2210218246FBF77CF8E8
:1003E0005A4F703FD7F819003867B7F81D00A7F8C3
:1003F000740007F15C014FF6FF708884C884D7F859
:1004000063004290D7F867004390D7F86B004490A0
:10041000D6F822000168459141684691806847906E
:10042000202133A8FBF75FF8D6F8220045A9C06861
:10043000E86342A805F082FD8046C82101A8FBF7C9
:1004400052F81C213BA8FBF74EF81C2148A8FBF7EB
:100450004AF80C2242A93BA801F05AFB0C2245A9FC
:1004600048A801F055FB48A800903BAB424638A194
:1004700001A8FCF78DF801A9032002F0FFF940461E
:100480000121A7F17008012804D0022808D0032810
:100490002AD11AE0EC728DF8CC10FFF7DBFE23E0D6
:1004A000EC7202208DF8CC003C6528487C650C215C
:1004B0002038BC6503F0D4FE4FF20200ADF84401D1
:1004C000D8F8041051A888470EE0E9721E498DF84B
:1004D000CC90C82305221E31022000F08BFC1A4864
:1004E0000221683006F096F957F8190FCDF8CD00C3
:1004F000B8884146ADF8D10011F82A0F8DF8D30025
:1005000048788DF8D4004888020A8DF8D5208DF8F7
:10051000D60008798DF8D70048798DF8D800887909
:100520008DF8D90098F83C008DF8DA001022514679
:100530000DF1DB00FAF7B0FF33A9304602F078FE88
:1005400052B0BDE8F0870000A0290020A84A002092
:10055000415554485F43484B2C7265733A25642CCF
:100560007365637265743A5B25735D5B25735D002B
:1005700038B5134C606D002820D0606D216C884226
:100580001CD1C823052204F12001022000F032FC16
:10059000002363650B48022103654365836504F10D
:1005A000680006F037F902216846009305F094FBD5
:1005B000684680B24EF2130102F0BEF938BD000069
:1005C000A0290020384A002000EB40020748012102
:1005D00000EB820081724FF6FF710181FF21C17231
:1005E0000021016081808171704700002464002037
:1005F0000B480068C005C00D10D0103840B200286C
:1006000006DA00F00F0000F1E02090F8140D03E08E
:1006100000F1E02090F80004400970470420704782
:1006200004ED00E010B5134C207900071ED460697A
:10063000401C6061E06808B104200AE001F05AFC47
:1006400008B1022005E0206960B16068C10704D0EC
:100650000320BDE8104006F06FB840F00100606074
:100660000020F6E7BDE81040FFF71ABDBDE81040D6
:1006700006F058B8DC2A002006494868020707D46B
:10068000820702D540F001004860022006F054B80D
:1006900006F048B8DC2A002008B5FF2250210648A1
:1006A000FAF71AFF5020002300901A460349024827
:1006B000FDF7B0FA08BD0000944A0020402A00204F
:1006C0002DE9F04100260125144C22E060682269E2
:1006D00000EBC607387805FA00F1114217D08A43BB
:1006E000226103F029FA02463878E36805FA00F13E
:1006F000194002FA00F3994209D17978012901D011
:10070000012100E0002151407A6802B19047761C37
:10071000F6B220788642D9D3BDE8F081002B0020C4
:1007200070B505460C46100001D0FDF759FC207845
:10073000152802D12846FDF709FC002070BD0000F5
:100740001FB58DF80C0004F0A1FE03A800F0F4F929
:100750000020CDF805009DF80500694620F01E0038
:1007600040F001000C3020F020008DF8050007203B
:100770008DF8060010208DF8070003208DF8090081
:100780009DF8080040F003008DF808000448009030
:1007900003208DF80400034800F0F8FA1FBD0000A4
:1007A00021070200AE29002001B50249684600F089
:1007B0009DF908BD3C290020097819B103220121C7
:1007C000FEF788BB0088FEF74BBF70470149086001
:1007D000704700003829002030B58FB005461C2135
:1007E0006846FAF780FE00249DF80000019440F06E
:1007F00018008DF800000394049405940694A879D9
:100800008DF8360041F23150ADF834000C949DF86B
:100810003000142120F0FF008DF830009DF83100E9
:1008200020F00F00401C20F0F00010308DF8310057
:100830009DF8320020F00600801C20F0080040F0F7
:1008400011008DF8320007A8FAF74DFE0DA80790A9
:100850000CA80890ADF824401720ADF82640ADF85C
:1008600028000B94A88805F1100307AA6946A2DFA7
:100870000FB030BD30B58FB005461C216846FAF781
:1008800032FE00249DF80000019440F004008DF831
:1008900000000394049405940694A8798DF836001A
:1008A00041F23250ADF834000C949DF83000142120
:1008B00020F0FF008DF830009DF8310020F00F008F
:1008C000401C20F0F00010308DF831009DF832000F
:1008D00020F00600801C20F0180040F001008DF888
:1008E000320007A8FAF7FFFD0DA807900CA80890A2
:1008F000ADF824401420ADF82640ADF828000B9444
:10090000A88805F1080307AA6946A2DF0FB030BD29
:1009100070B58EB00E4605461C216846FAF7E3FD19
:1009200000249DF80000019440F002008DF80000C2
:100930000394049405940694A8798DF8360041F246
:100940003450ADF834000C949DF83000142120F0A0
:100950000F00401C20F0F00010308DF830009DF8A2
:10096000310020F0FF008DF831009DF8320020F0BA
:100970000600801C20F0180040F001008DF83200C5
:1009800007A8FAF7B0FD0DA807900CA80890022060
:10099000ADF82400ADF82640ADF828000B96A888E5
:1009A00005F1200307AA6946A2DF0EB070BD000062
:1009B0003EB504461F48017848F20800002930D0AF
:1009C00084B3217800292CD11B490025096800290E
:1009D00027D0A178072929D2184AC1EBC10002EB20
:1009E0008000807EFF2821D012486A46103004F033
:1009F000C1FC002815D160230422694602A804F036
:100A000075FD0299491C0CD0602304220C496846EC
:100A100004F082FE002804D1084AA1781C3A42F86A
:100A200021503EBDFFE748F20E00FAE748F2100001
:100A3000F7E70000A42A0020306400202063002093
:100A4000A07402003EB50C4625490A7848F2080118
:100A50005AB38A1D18B114B1027832BB01E01046B6
:100A60003EBD204A126802B3817807291FD21E4B6F
:100A7000C1EBC10203EB8202927EFF2A17D01A4A11
:100A8000A3681C3AB3B142F82130817814486A4611
:100A9000103004F06FFC0028E2D160230422694684
:100AA00002A804F023FD48B116E008463EBD48F216
:100AB00010003EBD52F82110A160E6E70298401CEC
:100AC0000AD0642310226946A06804F00FFD0028B4
